{
  "abi": [
    {
      "type": "function",
      "name": "addPool",
      "inputs": [
        {
          "name": "_depositToken",
          "type": "address",
          "internalType": "contract IERC20"
        },
        {
          "name": "_rewardToken",
          "type": "address",
          "internalType": "contract IERC20"
        },
        {
          "name": "_apy",
          "type": "uint256",
          "internalType": "uint256"
        },
        {
          "name": "_lockDays",
          "type": "uint256",
          "internalType": "uint256"
        }
      ],
      "outputs": [],
      "stateMutability": "nonpayable"
    },
    {
      "type": "function",
      "name": "claimReward",
      "inputs": [
        {
          "name": "_pid",
          "type": "uint256",
          "internalType": "uint256"
        }
      ],
      "outputs": [],
      "stateMutability": "nonpayable"
    },
    {
      "type": "function",
      "name": "deposit",
      "inputs": [
        {
          "name": "_pid",
          "type": "uint256",
          "internalType": "uint256"
        },
        {
          "name": "_amount",
          "type": "uint256",
          "internalType": "uint256"
        }
      ],
      "outputs": [],
      "stateMutability": "nonpayable"
    },
    {
      "type": "function",
      "name": "depositedTokens",
      "inputs": [
        {
          "name": "",
          "type": "address",
          "internalType": "address"
        }
      ],
      "outputs": [
        {
          "name": "",
          "type": "uint256",
          "internalType": "uint256"
        }
      ],
      "stateMutability": "view"
    },
    {
      "type": "function",
      "name": "getNotifications",
      "inputs": [],
      "outputs": [
        {
          "name": "",
          "type": "tuple[]",
          "internalType": "struct StakingDapp.Notification[]",
          "components": [
            {
              "name": "poolID",
              "type": "uint256",
              "internalType": "uint256"
            },
            {
              "name": "amount",
              "type": "uint256",
              "internalType": "uint256"
            },
            {
              "name": "user",
              "type": "address",
              "internalType": "address"
            },
            {
              "name": "typeOf",
              "type": "string",
              "internalType": "string"
            },
            {
              "name": "timestamp",
              "type": "uint256",
              "internalType": "uint256"
            }
          ]
        }
      ],
      "stateMutability": "view"
    },
    {
      "type": "function",
      "name": "modifyPool",
      "inputs": [
        {
          "name": "_pid",
          "type": "uint256",
          "internalType": "uint256"
        },
        {
          "name": "_apy",
          "type": "uint256",
          "internalType": "uint256"
        }
      ],
      "outputs": [],
      "stateMutability": "nonpayable"
    },
    {
      "type": "function",
      "name": "notifications",
      "inputs": [
        {
          "name": "",
          "type": "uint256",
          "internalType": "uint256"
        }
      ],
      "outputs": [
        {
          "name": "poolID",
          "type": "uint256",
          "internalType": "uint256"
        },
        {
          "name": "amount",
          "type": "uint256",
          "internalType": "uint256"
        },
        {
          "name": "user",
          "type": "address",
          "internalType": "address"
        },
        {
          "name": "typeOf",
          "type": "string",
          "internalType": "string"
        },
        {
          "name": "timestamp",
          "type": "uint256",
          "internalType": "uint256"
        }
      ],
      "stateMutability": "view"
    },
    {
      "type": "function",
      "name": "owner",
      "inputs": [],
      "outputs": [
        {
          "name": "",
          "type": "address",
          "internalType": "address"
        }
      ],
      "stateMutability": "view"
    },
    {
      "type": "function",
      "name": "pendingReward",
      "inputs": [
        {
          "name": "_pid",
          "type": "uint256",
          "internalType": "uint256"
        },
        {
          "name": "_user",
          "type": "address",
          "internalType": "address"
        }
      ],
      "outputs": [
        {
          "name": "",
          "type": "uint256",
          "internalType": "uint256"
        }
      ],
      "stateMutability": "view"
    },
    {
      "type": "function",
      "name": "poolCount",
      "inputs": [],
      "outputs": [
        {
          "name": "",
          "type": "uint256",
          "internalType": "uint256"
        }
      ],
      "stateMutability": "view"
    },
    {
      "type": "function",
      "name": "poolInfo",
      "inputs": [
        {
          "name": "",
          "type": "uint256",
          "internalType": "uint256"
        }
      ],
      "outputs": [
        {
          "name": "depositToken",
          "type": "address",
          "internalType": "contract IERC20"
        },
        {
          "name": "rewardToken",
          "type": "address",
          "internalType": "contract IERC20"
        },
        {
          "name": "depositedAmount",
          "type": "uint256",
          "internalType": "uint256"
        },
        {
          "name": "apy",
          "type": "uint256",
          "internalType": "uint256"
        },
        {
          "name": "lockDays",
          "type": "uint256",
          "internalType": "uint256"
        }
      ],
      "stateMutability": "view"
    },
    {
      "type": "function",
      "name": "renounceOwnership",
      "inputs": [],
      "outputs": [],
      "stateMutability": "nonpayable"
    },
    {
      "type": "function",
      "name": "sweep",
      "inputs": [
        {
          "name": "token",
          "type": "address",
          "internalType": "address"
        },
        {
          "name": "amount",
          "type": "uint256",
          "internalType": "uint256"
        }
      ],
      "outputs": [],
      "stateMutability": "nonpayable"
    },
    {
      "type": "function",
      "name": "transferOwnership",
      "inputs": [
        {
          "name": "newOwner",
          "type": "address",
          "internalType": "address"
        }
      ],
      "outputs": [],
      "stateMutability": "nonpayable"
    },
    {
      "type": "function",
      "name": "userInfo",
      "inputs": [
        {
          "name": "",
          "type": "uint256",
          "internalType": "uint256"
        },
        {
          "name": "",
          "type": "address",
          "internalType": "address"
        }
      ],
      "outputs": [
        {
          "name": "amount",
          "type": "uint256",
          "internalType": "uint256"
        },
        {
          "name": "lastRewardAt",
          "type": "uint256",
          "internalType": "uint256"
        },
        {
          "name": "lockUntil",
          "type": "uint256",
          "internalType": "uint256"
        }
      ],
      "stateMutability": "view"
    },
    {
      "type": "function",
      "name": "withdraw",
      "inputs": [
        {
          "name": "_pid",
          "type": "uint256",
          "internalType": "uint256"
        },
        {
          "name": "_amount",
          "type": "uint256",
          "internalType": "uint256"
        }
      ],
      "outputs": [],
      "stateMutability": "nonpayable"
    },
    {
      "type": "event",
      "name": "OwnershipTransferred",
      "inputs": [
        {
          "name": "previousOwner",
          "type": "address",
          "indexed": true,
          "internalType": "address"
        },
        {
          "name": "newOwner",
          "type": "address",
          "indexed": true,
          "internalType": "address"
        }
      ],
      "anonymous": false
    }
  ],
  "bytecode": {
    "object": "0x6080604052670de0b6b3a7640000600255348015601b57600080fd5b50602333602b565b60018055607b565b600080546001600160a01b038381166001600160a01b0319831681178455604051919092169283917f8be0079c531659141344cd1fd0a4f28419497f9722a3daafe3b4186f6b6457e09190a35050565b6119c58061008a6000396000f3fe608060405234801561001057600080fd5b50600436106101005760003560e01c806398969e8211610097578063cf48bd2c11610066578063cf48bd2c1461028e578063e2bbb158146102a3578063f2fde38b146102b6578063f525cb68146102c957600080fd5b806398969e8214610227578063ae169a5014610248578063c20632ba1461025b578063c326bf4f1461026e57600080fd5b80636ea056a9116100d35780636ea056a91461019c578063715018a6146101af5780638da5cb5b146101b757806393f1a40b146101d257600080fd5b80631526fe271461010557806334c1f9441461015057806339739b9914610174578063441a3e7014610189575b600080fd5b6101186101133660046114ac565b6102d2565b604080516001600160a01b039687168152959094166020860152928401919091526060830152608082015260a0015b60405180910390f35b61016361015e3660046114ac565b61031f565b604051610147959493929190611515565b610187610182366004611554565b6103f7565b005b610187610197366004611554565b61042f565b6101876101aa36600461158b565b610716565b61018761085e565b6000546040516001600160a01b039091168152602001610147565b61020c6101e03660046115b7565b600660209081526000928352604080842090915290825290208054600182015460029092015490919083565b60408051938452602084019290925290820152606001610147565b61023a6102353660046115b7565b610872565b604051908152602001610147565b6101876102563660046114ac565b6108a8565b6101876102693660046115e7565b610a5b565b61023a61027c36600461162d565b60056020526000908152604090205481565b610296610ba4565b604051610147919061164a565b6101876102b1366004611554565b610cca565b6101876102c436600461162d565b610f32565b61023a60035481565b600481815481106102e257600080fd5b6000918252602090912060059091020180546001820154600283015460038401546004909401546001600160a01b03938416955091909216929085565b6007818154811061032f57600080fd5b6000918252602090912060059091020180546001820154600283015460038401805493955091936001600160a01b039091169290919061036e906116ed565b80601f016020809104026020016040519081016040528092919081815260200182805461039a906116ed565b80156103e75780601f106103bc576101008083540402835291602001916103e7565b820191906000526020600020905b8154815290600101906020018083116103ca57829003601f168201915b5050505050908060040154905085565b6103ff610fab565b60006004838154811061041457610414611727565b60009182526020909120600360059092020101919091555050565b60026001540361045a5760405162461bcd60e51b81526004016104519061173d565b60405180910390fd5b600260018190555060006004838154811061047757610477611727565b6000918252602080832086845260068252604080852033865290925292208054600590920290920192508311156104fb5760405162461bcd60e51b815260206004820152602260248201527f576974686472617720616d6f756e7420657863656564207468652062616c616e604482015261636560f01b6064820152608401610451565b42816002015411156105415760405162461bcd60e51b815260206004820152600f60248201526e4c6f636b206973204163746976652160881b6044820152606401610451565b600061054d8286611005565b8254909150156105f857600183015460405163a9059cbb60e01b8152336004820152602481018390526001600160a01b039091169063a9059cbb906044016020604051808303816000875af11580156105aa573d6000803e3d6000fd5b505050506040513d601f19601f820116820180604052508101906105ce9190611774565b506105f885823360405180604001604052806005815260200164436c61696d60d81b81525061109f565b83156106d6578382600001600082825461061291906117ac565b925050819055508383600201600082825461062d91906117ac565b909155505082546001600160a01b03166000908152600560205260408120805486929061065b9084906117ac565b9091555050825460405163a9059cbb60e01b8152336004820152602481018690526001600160a01b039091169063a9059cbb906044016020604051808303816000875af11580156106b0573d6000803e3d6000fd5b505050506040513d601f19601f820116820180604052508101906106d49190611774565b505b42826001018190555061070b85853360405180604001604052806008815260200167576974686472617760c01b81525061109f565b505060018055505050565b61071e610fab565b6040516370a0823160e01b81523060048201526000906001600160a01b038416906370a0823190602401602060405180830381865afa158015610765573d6000803e3d6000fd5b505050506040513d601f19601f8201168201806040525081019061078991906117bf565b9050808211156107d45760405162461bcd60e51b8152602060048201526016602482015275416d6f756e7420657863656564732062616c616e636560501b6044820152606401610451565b6001600160a01b0383166000908152600560205260409020546107f783836117ac565b10156108455760405162461bcd60e51b815260206004820152601f60248201527f43616e2774207769746864726177206465706f736974656420746f6b656e73006044820152606401610451565b6108596001600160a01b03841633846111b5565b505050565b610866610fab565b6108706000611207565b565b60008281526006602090815260408083206001600160a01b0385168452909152812061089e8185611005565b9150505b92915050565b6002600154036108ca5760405162461bcd60e51b81526004016104519061173d565b60026001819055506000600482815481106108e7576108e7611727565b6000918252602080832085845260068252604080852033865290925292206002810154600590920290920192504210156109545760405162461bcd60e51b815260206004820152600e60248201526d4c6f636b2069732061637469766560901b6044820152606401610451565b60006109608285611005565b9050600081116109a85760405162461bcd60e51b81526020600482015260136024820152724e6f207265776172647320746f20636c61696d60681b6044820152606401610451565b4260018381019190915583015460405163a9059cbb60e01b8152336004820152602481018390526001600160a01b039091169063a9059cbb906044016020604051808303816000875af1158015610a03573d6000803e3d6000fd5b505050506040513d601f19601f82011682018060405250810190610a279190611774565b50610a5184823360405180604001604052806005815260200164436c61696d60d81b81525061109f565b5050600180555050565b610a63610fab565b6040805160a0810182526001600160a01b038087168252858116602083019081526000938301848152606084018781526080850187815260048054600181018255908852955160059096027f8a35acfbc15ff81a39ae7d344fd709f28e8600b4aa8c65c6b64bfe7fe36bd19b810180549787166001600160a01b031998891617905593517f8a35acfbc15ff81a39ae7d344fd709f28e8600b4aa8c65c6b64bfe7fe36bd19c8501805491909616961695909517909355517f8a35acfbc15ff81a39ae7d344fd709f28e8600b4aa8c65c6b64bfe7fe36bd19d82015590517f8a35acfbc15ff81a39ae7d344fd709f28e8600b4aa8c65c6b64bfe7fe36bd19e82015590517f8a35acfbc15ff81a39ae7d344fd709f28e8600b4aa8c65c6b64bfe7fe36bd19f909101556003805491610b99836117d8565b919050555050505050565b60606007805480602002602001604051908101604052809291908181526020016000905b82821015610cc15760008481526020908190206040805160a081018252600586029092018054835260018101549383019390935260028301546001600160a01b031690820152600382018054919291606084019190610c26906116ed565b80601f0160208091040260200160405190810160405280929190818152602001828054610c52906116ed565b8015610c9f5780601f10610c7457610100808354040283529160200191610c9f565b820191906000526020600020905b815481529060010190602001808311610c8257829003601f168201915b5050505050815260200160048201548152505081526020019060010190610bc8565b50505050905090565b600260015403610cec5760405162461bcd60e51b81526004016104519061173d565b600260015580610d3e5760405162461bcd60e51b815260206004820181905260248201527f416d6f756e742073686f756c642062652067726561746572207468656e2030216044820152606401610451565b600060048381548110610d5357610d53611727565b60009182526020808320868452600682526040808520338652909252922080546005909202909201925015610e32576000610d8e8286611005565b600184015460405163a9059cbb60e01b8152336004820152602481018390529192506001600160a01b03169063a9059cbb906044016020604051808303816000875af1158015610de2573d6000803e3d6000fd5b505050506040513d601f19601f82011682018060405250810190610e069190611774565b50610e3085823360405180604001604052806005815260200164436c61696d60d81b81525061109f565b505b81546040516323b872dd60e01b8152336004820152306024820152604481018590526001600160a01b03909116906323b872dd906064016020604051808303816000875af1158015610e88573d6000803e3d6000fd5b505050506040513d601f19601f82011682018060405250810190610eac9190611774565b5082826002016000828254610ec191906117f1565b9091555050805483908290600090610eda9084906117f1565b90915550504260018201556004820154610ef590603c611804565b610eff90426117f1565b8160020181905550610a518484336040518060400160405280600781526020016611195c1bdcda5d60ca1b81525061109f565b610f3a610fab565b6001600160a01b038116610f9f5760405162461bcd60e51b815260206004820152602660248201527f4f776e61626c653a206e6577206f776e657220697320746865207a65726f206160448201526564647265737360d01b6064820152608401610451565b610fa881611207565b50565b6000546001600160a01b031633146108705760405162461bcd60e51b815260206004820181905260248201527f4f776e61626c653a2063616c6c6572206973206e6f7420746865206f776e65726044820152606401610451565b6000806004838154811061101b5761101b611727565b906000526020600020906005020190506000603c85600101544261103f91906117ac565b611049919061181b565b9050816004015481111561105e575060048101545b8160030154606461016d8388600001546110789190611804565b611082919061181b565b61108c919061181b565b6110969190611804565b95945050505050565b6040805160a081018252858152602081018581526001600160a01b038086169383019384526060830185815242608085015260078054600181018255600091909152845160059091027fa66cc928b5edb82af9bd49922954155ab7b0942694bea4ce44661d9a8736c688810191825593517fa66cc928b5edb82af9bd49922954155ab7b0942694bea4ce44661d9a8736c68985015594517fa66cc928b5edb82af9bd49922954155ab7b0942694bea4ce44661d9a8736c68a84018054919093166001600160a01b031990911617909155519192917fa66cc928b5edb82af9bd49922954155ab7b0942694bea4ce44661d9a8736c68b909101906111a290826118a1565b5060808201518160040155505050505050565b604080516001600160a01b038416602482015260448082018490528251808303909101815260649091019091526020810180516001600160e01b031663a9059cbb60e01b179052610859908490611257565b600080546001600160a01b038381166001600160a01b0319831681178455604051919092169283917f8be0079c531659141344cd1fd0a4f28419497f9722a3daafe3b4186f6b6457e09190a35050565b60006112ac826040518060400160405280602081526020017f5361666545524332303a206c6f772d6c6576656c2063616c6c206661696c6564815250856001600160a01b03166113299092919063ffffffff16565b80519091501561085957808060200190518101906112ca9190611774565b6108595760405162461bcd60e51b815260206004820152602a60248201527f5361666545524332303a204552433230206f7065726174696f6e20646964206e6044820152691bdd081cdd58d8d9595960b21b6064820152608401610451565b60606113388484600085611342565b90505b9392505050565b6060824710156113a35760405162461bcd60e51b815260206004820152602660248201527f416464726573733a20696e73756666696369656e742062616c616e636520666f6044820152651c8818d85b1b60d21b6064820152608401610451565b6001600160a01b0385163b6113fa5760405162461bcd60e51b815260206004820152601d60248201527f416464726573733a2063616c6c20746f206e6f6e2d636f6e74726163740000006044820152606401610451565b600080866001600160a01b031685876040516114169190611960565b60006040518083038185875af1925050503d8060008114611453576040519150601f19603f3d011682016040523d82523d6000602084013e611458565b606091505b5091509150611468828286611473565b979650505050505050565b6060831561148257508161133b565b8251156114925782518084602001fd5b8160405162461bcd60e51b8152600401610451919061197c565b6000602082840312156114be57600080fd5b5035919050565b60005b838110156114e05781810151838201526020016114c8565b50506000910152565b600081518084526115018160208601602086016114c5565b601f01601f19169290920160200192915050565b85815284602082015260018060a01b038416604082015260a06060820152600061154260a08301856114e9565b90508260808301529695505050505050565b6000806040838503121561156757600080fd5b50508035926020909101359150565b6001600160a01b0381168114610fa857600080fd5b6000806040838503121561159e57600080fd5b82356115a981611576565b946020939093013593505050565b600080604083850312156115ca57600080fd5b8235915060208301356115dc81611576565b809150509250929050565b600080600080608085870312156115fd57600080fd5b843561160881611576565b9350602085013561161881611576565b93969395505050506040820135916060013590565b60006020828403121561163f57600080fd5b813561133b81611576565b6000602082016020835280845180835260408501915060408160051b86010192506020860160005b828110156116e157603f198786030184528151805186526020810151602087015260018060a01b036040820151166040870152606081015160a060608801526116be60a08801826114e9565b608092830151979092019690965294506020938401939190910190600101611672565b50929695505050505050565b600181811c9082168061170157607f821691505b60208210810361172157634e487b7160e01b600052602260045260246000fd5b50919050565b634e487b7160e01b600052603260045260246000fd5b6020808252601f908201527f5265656e7472616e637947756172643a207265656e7472616e742063616c6c00604082015260600190565b60006020828403121561178657600080fd5b8151801515811461133b57600080fd5b634e487b7160e01b600052601160045260246000fd5b818103818111156108a2576108a2611796565b6000602082840312156117d157600080fd5b5051919050565b6000600182016117ea576117ea611796565b5060010190565b808201808211156108a2576108a2611796565b80820281158282048414176108a2576108a2611796565b60008261183857634e487b7160e01b600052601260045260246000fd5b500490565b634e487b7160e01b600052604160045260246000fd5b601f82111561085957806000526020600020601f840160051c8101602085101561187a5750805b601f840160051c820191505b8181101561189a5760008155600101611886565b5050505050565b815167ffffffffffffffff8111156118bb576118bb61183d565b6118cf816118c984546116ed565b84611853565b6020601f82116001811461190357600083156118eb5750848201515b600019600385901b1c1916600184901b17845561189a565b600084815260208120601f198516915b828110156119335787850151825560209485019460019092019101611913565b50848210156119515786840151600019600387901b60f8161c191681555b50505050600190811b01905550565b600082516119728184602087016114c5565b9190910192915050565b60208152600061133b60208301846114e956fea264697066735822122060b21628f558e3dd8aec520625b5a219ccfc55e502a180e45a7e83d654e6a7b864736f6c634300081c0033",
    "linkReferences": {}
  },
  "methodIdentifiers": {
    "addPool(address,address,uint256,uint256)": "c20632ba",
    "claimReward(uint256)": "ae169a50",
    "deposit(uint256,uint256)": "e2bbb158",
    "depositedTokens(address)": "c326bf4f",
    "getNotifications()": "cf48bd2c",
    "modifyPool(uint256,uint256)": "39739b99",
    "notifications(uint256)": "34c1f944",
    "owner()": "8da5cb5b",
    "pendingReward(uint256,address)": "98969e82",
    "poolCount()": "f525cb68",
    "poolInfo(uint256)": "1526fe27",
    "renounceOwnership()": "715018a6",
    "sweep(address,uint256)": "6ea056a9",
    "transferOwnership(address)": "f2fde38b",
    "userInfo(uint256,address)": "93f1a40b",
    "withdraw(uint256,uint256)": "441a3e70"
  },
  "id": 20
}