{
  "abi": [
    {
      "type": "constructor",
      "inputs": [],
      "stateMutability": "nonpayable"
    },
    {
      "type": "function",
      "name": "buyToken",
      "inputs": [
        {
          "name": "_tokenAmount",
          "type": "uint256",
          "internalType": "uint256"
        }
      ],
      "outputs": [],
      "stateMutability": "payable"
    },
    {
      "type": "function",
      "name": "getTokenDetails",
      "inputs": [],
      "outputs": [
        {
          "name": "name",
          "type": "string",
          "internalType": "string"
        },
        {
          "name": "symbol",
          "type": "string",
          "internalType": "string"
        },
        {
          "name": "balance",
          "type": "uint256",
          "internalType": "uint256"
        },
        {
          "name": "supply",
          "type": "uint256",
          "internalType": "uint256"
        },
        {
          "name": "tokenPrice",
          "type": "uint256",
          "internalType": "uint256"
        },
        {
          "name": "tokenAddr",
          "type": "address",
          "internalType": "address"
        }
      ],
      "stateMutability": "view"
    },
    {
      "type": "function",
      "name": "owner",
      "inputs": [],
      "outputs": [
        {
          "name": "",
          "type": "address",
          "internalType": "address"
        }
      ],
      "stateMutability": "view"
    },
    {
      "type": "function",
      "name": "soldTokens",
      "inputs": [],
      "outputs": [
        {
          "name": "",
          "type": "uint256",
          "internalType": "uint256"
        }
      ],
      "stateMutability": "view"
    },
    {
      "type": "function",
      "name": "tokenAddress",
      "inputs": [],
      "outputs": [
        {
          "name": "",
          "type": "address",
          "internalType": "address"
        }
      ],
      "stateMutability": "view"
    },
    {
      "type": "function",
      "name": "tokenSalePrice",
      "inputs": [],
      "outputs": [
        {
          "name": "",
          "type": "uint256",
          "internalType": "uint256"
        }
      ],
      "stateMutability": "view"
    },
    {
      "type": "function",
      "name": "updateToken",
      "inputs": [
        {
          "name": "_tokenAddress",
          "type": "address",
          "internalType": "address"
        }
      ],
      "outputs": [],
      "stateMutability": "nonpayable"
    },
    {
      "type": "function",
      "name": "updateTokenSalePrice",
      "inputs": [
        {
          "name": "_tokenSalePrice",
          "type": "uint256",
          "internalType": "uint256"
        }
      ],
      "outputs": [],
      "stateMutability": "nonpayable"
    },
    {
      "type": "function",
      "name": "withdrawAllTokens",
      "inputs": [],
      "outputs": [],
      "stateMutability": "nonpayable"
    }
  ],
  "bytecode": {
    "object": "0x6080604052348015600f57600080fd5b50600080546001600160a01b03191633179055610ab6806100316000396000f3fe6080604052600436106100865760003560e01c80638da5cb5b116100595780638da5cb5b146100fe5780639d76ea5814610136578063e86790eb14610156578063ff332ab71461016c578063ffdeb9031461019357600080fd5b8063280da6fa1461008b5780632d296bf1146100a25780635ed9ebfc146100b55780637ad3def2146100de575b600080fd5b34801561009757600080fd5b506100a06101b3565b005b6100a06100b03660046107e0565b610324565b3480156100c157600080fd5b506100cb60035481565b6040519081526020015b60405180910390f35b3480156100ea57600080fd5b506100a06100f93660046107f9565b610555565b34801561010a57600080fd5b5060005461011e906001600160a01b031681565b6040516001600160a01b0390911681526020016100d5565b34801561014257600080fd5b5060015461011e906001600160a01b031681565b34801561016257600080fd5b506100cb60025481565b34801561017857600080fd5b506101816105a1565b6040516100d596959493929190610879565b34801561019f57600080fd5b506100a06101ae3660046107e0565b61077e565b6000546001600160a01b031633146101e65760405162461bcd60e51b81526004016101dd906108cd565b60405180910390fd5b6001546040516370a0823160e01b81523060048201526001600160a01b039091169060009082906370a0823190602401602060405180830381865afa158015610233573d6000803e3d6000fd5b505050506040513d601f19601f820116820180604052508101906102579190610918565b9050600081116102a05760405162461bcd60e51b81526020600482015260146024820152734e6f20746f6b656e20746f20776974686472617760601b60448201526064016101dd565b60005460405163a9059cbb60e01b81526001600160a01b039182166004820152602481018390529083169063a9059cbb906044016020604051808303816000875af11580156102f3573d6000803e3d6000fd5b505050506040513d601f19601f820116820180604052508101906103179190610931565b61032057600080fd5b5050565b610330816002546107ad565b34146103995760405162461bcd60e51b815260206004820152603260248201527f496e73756666696369656e742045746865722070726f766964656420666f722060448201527174686520746f6b656e20707572636861736560701b60648201526084016101dd565b6001546040516370a0823160e01b81523060048201526001600160a01b039091169081906370a0823190602401602060405180830381865afa1580156103e3573d6000803e3d6000fd5b505050506040513d601f19601f820116820180604052508101906104079190610918565b8211156104655760405162461bcd60e51b815260206004820152602660248201527f496e73756666696369656e7420746f6b656e7320617661696c61626c6520666f604482015265722073616c6560d01b60648201526084016101dd565b6001600160a01b03811663a9059cbb3361048785670de0b6b3a7640000610969565b6040516001600160e01b031960e085901b1681526001600160a01b03909216600483015260248201526044016020604051808303816000875af11580156104d2573d6000803e3d6000fd5b505050506040513d601f19601f820116820180604052508101906104f69190610931565b6104ff57600080fd5b600080546040516001600160a01b03909116913480156108fc02929091818181858888f19350505050158015610539573d6000803e3d6000fd5b50816003600082825461054c9190610980565b90915550505050565b6000546001600160a01b0316331461057f5760405162461bcd60e51b81526004016101dd906108cd565b600180546001600160a01b0319166001600160a01b0392909216919091179055565b6060806000806000806000600160009054906101000a90046001600160a01b03169050806001600160a01b03166306fdde036040518163ffffffff1660e01b8152600401600060405180830381865afa158015610602573d6000803e3d6000fd5b505050506040513d6000823e601f3d908101601f1916820160405261062a91908101906109a9565b816001600160a01b03166395d89b416040518163ffffffff1660e01b8152600401600060405180830381865afa158015610668573d6000803e3d6000fd5b505050506040513d6000823e601f3d908101601f1916820160405261069091908101906109a9565b6040516370a0823160e01b81523060048201526001600160a01b038416906370a0823190602401602060405180830381865afa1580156106d4573d6000803e3d6000fd5b505050506040513d601f19601f820116820180604052508101906106f89190610918565b836001600160a01b03166318160ddd6040518163ffffffff1660e01b8152600401602060405180830381865afa158015610736573d6000803e3d6000fd5b505050506040513d601f19601f8201168201806040525081019061075a9190610918565b600254600154949c939b50919950975095506001600160a01b039091169350915050565b6000546001600160a01b031633146107a85760405162461bcd60e51b81526004016101dd906108cd565b600255565b60008115806107d1575082826107c38183610969565b92506107cf9083610a5e565b145b6107da57600080fd5b92915050565b6000602082840312156107f257600080fd5b5035919050565b60006020828403121561080b57600080fd5b81356001600160a01b038116811461082257600080fd5b9392505050565b60005b8381101561084457818101518382015260200161082c565b50506000910152565b60008151808452610865816020860160208601610829565b601f01601f19169290920160200192915050565b60c08152600061088c60c083018961084d565b828103602084015261089e818961084d565b60408401979097525050606081019390935260808301919091526001600160a01b031660a09091015292915050565b6020808252602b908201527f4f6e6c7920636f6e7472616374206f776e65722063616e20706572666f726d2060408201526a3a3434b99030b1ba34b7b760a91b606082015260800190565b60006020828403121561092a57600080fd5b5051919050565b60006020828403121561094357600080fd5b8151801515811461082257600080fd5b634e487b7160e01b600052601160045260246000fd5b80820281158282048414176107da576107da610953565b808201808211156107da576107da610953565b634e487b7160e01b600052604160045260246000fd5b6000602082840312156109bb57600080fd5b815167ffffffffffffffff8111156109d257600080fd5b8201601f810184136109e357600080fd5b805167ffffffffffffffff8111156109fd576109fd610993565b604051601f8201601f19908116603f0116810167ffffffffffffffff81118282101715610a2c57610a2c610993565b604052818152828201602001861015610a4457600080fd5b610a55826020830160208601610829565b95945050505050565b600082610a7b57634e487b7160e01b600052601260045260246000fd5b50049056fea26469706673582212207488ba8cf5911c9d90ab31b609836624bf5d2ca8bbb83840eaa5d7008db2fe3664736f6c634300081c0033",
    "linkReferences": {}
  },
  "methodIdentifiers": {
    "buyToken(uint256)": "2d296bf1",
    "getTokenDetails()": "ff332ab7",
    "owner()": "8da5cb5b",
    "soldTokens()": "5ed9ebfc",
    "tokenAddress()": "9d76ea58",
    "tokenSalePrice()": "e86790eb",
    "updateToken(address)": "7ad3def2",
    "updateTokenSalePrice(uint256)": "ffdeb903",
    "withdrawAllTokens()": "280da6fa"
  },
  "id": 21
}